{
  "_format": "hh-sol-artifact-1",
  "contractName": "NFT",
  "sourceName": "contracts/NFT.sol",
  "abi": [
    {
      "inputs": [],
      "stateMutability": "nonpayable",
      "type": "constructor"
    },
    {
      "anonymous": false,
      "inputs": [
        {
          "indexed": true,
          "internalType": "address",
          "name": "owner",
          "type": "address"
        },
        {
          "indexed": true,
          "internalType": "address",
          "name": "approved",
          "type": "address"
        },
        {
          "indexed": true,
          "internalType": "uint256",
          "name": "tokenId",
          "type": "uint256"
        }
      ],
      "name": "Approval",
      "type": "event"
    },
    {
      "anonymous": false,
      "inputs": [
        {
          "indexed": true,
          "internalType": "address",
          "name": "owner",
          "type": "address"
        },
        {
          "indexed": true,
          "internalType": "address",
          "name": "operator",
          "type": "address"
        },
        {
          "indexed": false,
          "internalType": "bool",
          "name": "approved",
          "type": "bool"
        }
      ],
      "name": "ApprovalForAll",
      "type": "event"
    },
    {
      "anonymous": false,
      "inputs": [
        {
          "indexed": true,
          "internalType": "address",
          "name": "from",
          "type": "address"
        },
        {
          "indexed": true,
          "internalType": "address",
          "name": "to",
          "type": "address"
        },
        {
          "indexed": true,
          "internalType": "uint256",
          "name": "tokenId",
          "type": "uint256"
        }
      ],
      "name": "Transfer",
      "type": "event"
    },
    {
      "inputs": [
        {
          "internalType": "address",
          "name": "to",
          "type": "address"
        },
        {
          "internalType": "uint256",
          "name": "tokenId",
          "type": "uint256"
        }
      ],
      "name": "approve",
      "outputs": [],
      "stateMutability": "nonpayable",
      "type": "function"
    },
    {
      "inputs": [
        {
          "internalType": "address",
          "name": "owner",
          "type": "address"
        }
      ],
      "name": "balanceOf",
      "outputs": [
        {
          "internalType": "uint256",
          "name": "",
          "type": "uint256"
        }
      ],
      "stateMutability": "view",
      "type": "function"
    },
    {
      "inputs": [
        {
          "internalType": "uint256",
          "name": "tokenId",
          "type": "uint256"
        }
      ],
      "name": "getApproved",
      "outputs": [
        {
          "internalType": "address",
          "name": "",
          "type": "address"
        }
      ],
      "stateMutability": "view",
      "type": "function"
    },
    {
      "inputs": [
        {
          "internalType": "address",
          "name": "owner",
          "type": "address"
        },
        {
          "internalType": "address",
          "name": "operator",
          "type": "address"
        }
      ],
      "name": "isApprovedForAll",
      "outputs": [
        {
          "internalType": "bool",
          "name": "",
          "type": "bool"
        }
      ],
      "stateMutability": "view",
      "type": "function"
    },
    {
      "inputs": [
        {
          "internalType": "address",
          "name": "recipientAddress",
          "type": "address"
        },
        {
          "internalType": "string",
          "name": "tokenURI_",
          "type": "string"
        }
      ],
      "name": "mint",
      "outputs": [
        {
          "internalType": "uint256",
          "name": "newItemId",
          "type": "uint256"
        }
      ],
      "stateMutability": "nonpayable",
      "type": "function"
    },
    {
      "inputs": [],
      "name": "name",
      "outputs": [
        {
          "internalType": "string",
          "name": "",
          "type": "string"
        }
      ],
      "stateMutability": "view",
      "type": "function"
    },
    {
      "inputs": [
        {
          "internalType": "uint256",
          "name": "tokenId",
          "type": "uint256"
        }
      ],
      "name": "ownerOf",
      "outputs": [
        {
          "internalType": "address",
          "name": "",
          "type": "address"
        }
      ],
      "stateMutability": "view",
      "type": "function"
    },
    {
      "inputs": [
        {
          "internalType": "address",
          "name": "from",
          "type": "address"
        },
        {
          "internalType": "address",
          "name": "to",
          "type": "address"
        },
        {
          "internalType": "uint256",
          "name": "tokenId",
          "type": "uint256"
        }
      ],
      "name": "safeTransferFrom",
      "outputs": [],
      "stateMutability": "nonpayable",
      "type": "function"
    },
    {
      "inputs": [
        {
          "internalType": "address",
          "name": "from",
          "type": "address"
        },
        {
          "internalType": "address",
          "name": "to",
          "type": "address"
        },
        {
          "internalType": "uint256",
          "name": "tokenId",
          "type": "uint256"
        },
        {
          "internalType": "bytes",
          "name": "data",
          "type": "bytes"
        }
      ],
      "name": "safeTransferFrom",
      "outputs": [],
      "stateMutability": "nonpayable",
      "type": "function"
    },
    {
      "inputs": [
        {
          "internalType": "address",
          "name": "operator",
          "type": "address"
        },
        {
          "internalType": "bool",
          "name": "approved",
          "type": "bool"
        }
      ],
      "name": "setApprovalForAll",
      "outputs": [],
      "stateMutability": "nonpayable",
      "type": "function"
    },
    {
      "inputs": [
        {
          "internalType": "bytes4",
          "name": "interfaceId",
          "type": "bytes4"
        }
      ],
      "name": "supportsInterface",
      "outputs": [
        {
          "internalType": "bool",
          "name": "",
          "type": "bool"
        }
      ],
      "stateMutability": "view",
      "type": "function"
    },
    {
      "inputs": [],
      "name": "symbol",
      "outputs": [
        {
          "internalType": "string",
          "name": "",
          "type": "string"
        }
      ],
      "stateMutability": "view",
      "type": "function"
    },
    {
      "inputs": [
        {
          "internalType": "uint256",
          "name": "tokenId",
          "type": "uint256"
        }
      ],
      "name": "tokenURI",
      "outputs": [
        {
          "internalType": "string",
          "name": "",
          "type": "string"
        }
      ],
      "stateMutability": "view",
      "type": "function"
    },
    {
      "inputs": [
        {
          "internalType": "address",
          "name": "from",
          "type": "address"
        },
        {
          "internalType": "address",
          "name": "to",
          "type": "address"
        },
        {
          "internalType": "uint256",
          "name": "tokenId",
          "type": "uint256"
        }
      ],
      "name": "transferFrom",
      "outputs": [],
      "stateMutability": "nonpayable",
      "type": "function"
    }
  ],
  "bytecode": "0x60806040523480156200001157600080fd5b506040518060400160405280600a81526020017f4572656e4a6165676172000000000000000000000000000000000000000000008152506040518060400160405280600281526020017f454a000000000000000000000000000000000000000000000000000000000000815250816000908051906020019062000096929190620000b8565b508060019080519060200190620000af929190620000b8565b505050620001cd565b828054620000c69062000168565b90600052602060002090601f016020900481019282620000ea576000855562000136565b82601f106200010557805160ff191683800117855562000136565b8280016001018555821562000136579182015b828111156200013557825182559160200191906001019062000118565b5b50905062000145919062000149565b5090565b5b80821115620001645760008160009055506001016200014a565b5090565b600060028204905060018216806200018157607f821691505b602082108114156200019857620001976200019e565b5b50919050565b7f4e487b7100000000000000000000000000000000000000000000000000000000600052602260045260246000fd5b6129bf80620001dd6000396000f3fe608060405234801561001057600080fd5b50600436106100ea5760003560e01c806370a082311161008c578063b88d4fde11610066578063b88d4fde1461025b578063c87b56dd14610277578063d0def521146102a7578063e985e9c5146102d7576100ea565b806370a08231146101f157806395d89b4114610221578063a22cb4651461023f576100ea565b8063095ea7b3116100c8578063095ea7b31461016d57806323b872dd1461018957806342842e0e146101a55780636352211e146101c1576100ea565b806301ffc9a7146100ef57806306fdde031461011f578063081812fc1461013d575b600080fd5b61010960048036038101906101049190611e6d565b610307565b60405161011691906121e7565b60405180910390f35b6101276103e9565b6040516101349190612202565b60405180910390f35b61015760048036038101906101529190611ebf565b61047b565b6040516101649190612180565b60405180910390f35b61018760048036038101906101829190611e31565b6104c1565b005b6101a3600480360381019061019e9190611cd7565b6105d9565b005b6101bf60048036038101906101ba9190611cd7565b610639565b005b6101db60048036038101906101d69190611ebf565b610659565b6040516101e89190612180565b60405180910390f35b61020b60048036038101906102069190611c72565b6106e0565b60405161021891906123a4565b60405180910390f35b610229610798565b6040516102369190612202565b60405180910390f35b61025960048036038101906102549190611da1565b61082a565b005b61027560048036038101906102709190611d26565b610840565b005b610291600480360381019061028c9190611ebf565b6108a2565b60405161029e9190612202565b60405180910390f35b6102c160048036038101906102bc9190611ddd565b6109b5565b6040516102ce91906123a4565b60405180910390f35b6102f160048036038101906102ec9190611c9b565b6109e7565b6040516102fe91906121e7565b60405180910390f35b60007f80ac58cd000000000000000000000000000000000000000000000000000000007bffffffffffffffffffffffffffffffffffffffffffffffffffffffff1916827bffffffffffffffffffffffffffffffffffffffffffffffffffffffff191614806103d257507f5b5e139f000000000000000000000000000000000000000000000000000000007bffffffffffffffffffffffffffffffffffffffffffffffffffffffff1916827bffffffffffffffffffffffffffffffffffffffffffffffffffffffff1916145b806103e257506103e182610a7b565b5b9050919050565b6060600080546103f89061253f565b80601f01602080910402602001604051908101604052809291908181526020018280546104249061253f565b80156104715780601f1061044657610100808354040283529160200191610471565b820191906000526020600020905b81548152906001019060200180831161045457829003601f168201915b5050505050905090565b600061048682610ae5565b6004600083815260200190815260200160002060009054906101000a900473ffffffffffffffffffffffffffffffffffffffff169050919050565b60006104cc82610659565b90508073ffffffffffffffffffffffffffffffffffffffff168373ffffffffffffffffffffffffffffffffffffffff16141561053d576040517f08c379a000000000000000000000000000000000000000000000000000000000815260040161053490612364565b60405180910390fd5b8073ffffffffffffffffffffffffffffffffffffffff1661055c610b30565b73ffffffffffffffffffffffffffffffffffffffff16148061058b575061058a81610585610b30565b6109e7565b5b6105ca576040517f08c379a00000000000000000000000000000000000000000000000000000000081526004016105c190612384565b60405180910390fd5b6105d48383610b38565b505050565b6105ea6105e4610b30565b82610bf1565b610629576040517f08c379a000000000000000000000000000000000000000000000000000000000815260040161062090612224565b60405180910390fd5b610634838383610c86565b505050565b61065483838360405180602001604052806000815250610840565b505050565b60008061066583610f80565b9050600073ffffffffffffffffffffffffffffffffffffffff168173ffffffffffffffffffffffffffffffffffffffff1614156106d7576040517f08c379a00000000000000000000000000000000000000000000000000000000081526004016106ce90612344565b60405180910390fd5b80915050919050565b60008073ffffffffffffffffffffffffffffffffffffffff168273ffffffffffffffffffffffffffffffffffffffff161415610751576040517f08c379a0000000000000000000000000000000000000000000000000000000008152600401610748906122e4565b60405180910390fd5b600360008373ffffffffffffffffffffffffffffffffffffffff1673ffffffffffffffffffffffffffffffffffffffff168152602001908152602001600020549050919050565b6060600180546107a79061253f565b80601f01602080910402602001604051908101604052809291908181526020018280546107d39061253f565b80156108205780601f106107f557610100808354040283529160200191610820565b820191906000526020600020905b81548152906001019060200180831161080357829003601f168201915b5050505050905090565b61083c610835610b30565b8383610fbd565b5050565b61085161084b610b30565b83610bf1565b610890576040517f08c379a000000000000000000000000000000000000000000000000000000000815260040161088790612224565b60405180910390fd5b61089c8484848461112a565b50505050565b60606108ad82610ae5565b60006006600084815260200190815260200160002080546108cd9061253f565b80601f01602080910402602001604051908101604052809291908181526020018280546108f99061253f565b80156109465780601f1061091b57610100808354040283529160200191610946565b820191906000526020600020905b81548152906001019060200180831161092957829003601f168201915b505050505090506000610957611186565b905060008151141561096d5781925050506109b0565b6000825111156109a257808260405160200161098a92919061215c565b604051602081830303815290604052925050506109b0565b6109ab8461119d565b925050505b919050565b60006109c16007611205565b6109cb600761121b565b90506109d78382611229565b6109e18183611247565b92915050565b6000600560008473ffffffffffffffffffffffffffffffffffffffff1673ffffffffffffffffffffffffffffffffffffffff16815260200190815260200160002060008373ffffffffffffffffffffffffffffffffffffffff1673ffffffffffffffffffffffffffffffffffffffff16815260200190815260200160002060009054906101000a900460ff16905092915050565b60007f01ffc9a7000000000000000000000000000000000000000000000000000000007bffffffffffffffffffffffffffffffffffffffffffffffffffffffff1916827bffffffffffffffffffffffffffffffffffffffffffffffffffffffff1916149050919050565b610aee816112bb565b610b2d576040517f08c379a0000000000000000000000000000000000000000000000000000000008152600401610b2490612344565b60405180910390fd5b50565b600033905090565b816004600083815260200190815260200160002060006101000a81548173ffffffffffffffffffffffffffffffffffffffff021916908373ffffffffffffffffffffffffffffffffffffffff160217905550808273ffffffffffffffffffffffffffffffffffffffff16610bab83610659565b73ffffffffffffffffffffffffffffffffffffffff167f8c5be1e5ebec7d5bd14f71427d1e84f3dd0314c0f7b2291e5b200ac8c7c3b92560405160405180910390a45050565b600080610bfd83610659565b90508073ffffffffffffffffffffffffffffffffffffffff168473ffffffffffffffffffffffffffffffffffffffff161480610c3f5750610c3e81856109e7565b5b80610c7d57508373ffffffffffffffffffffffffffffffffffffffff16610c658461047b565b73ffffffffffffffffffffffffffffffffffffffff16145b91505092915050565b8273ffffffffffffffffffffffffffffffffffffffff16610ca682610659565b73ffffffffffffffffffffffffffffffffffffffff1614610cfc576040517f08c379a0000000000000000000000000000000000000000000000000000000008152600401610cf390612264565b60405180910390fd5b600073ffffffffffffffffffffffffffffffffffffffff168273ffffffffffffffffffffffffffffffffffffffff161415610d6c576040517f08c379a0000000000000000000000000000000000000000000000000000000008152600401610d63906122a4565b60405180910390fd5b610d7983838360016112fc565b8273ffffffffffffffffffffffffffffffffffffffff16610d9982610659565b73ffffffffffffffffffffffffffffffffffffffff1614610def576040517f08c379a0000000000000000000000000000000000000000000000000000000008152600401610de690612264565b60405180910390fd5b6004600082815260200190815260200160002060006101000a81549073ffffffffffffffffffffffffffffffffffffffff02191690556001600360008573ffffffffffffffffffffffffffffffffffffffff1673ffffffffffffffffffffffffffffffffffffffff168152602001908152602001600020600082825403925050819055506001600360008473ffffffffffffffffffffffffffffffffffffffff1673ffffffffffffffffffffffffffffffffffffffff16815260200190815260200160002060008282540192505081905550816002600083815260200190815260200160002060006101000a81548173ffffffffffffffffffffffffffffffffffffffff021916908373ffffffffffffffffffffffffffffffffffffffff160217905550808273ffffffffffffffffffffffffffffffffffffffff168473ffffffffffffffffffffffffffffffffffffffff167fddf252ad1be2c89b69c2b068fc378daa952ba7f163c4a11628f55a4df523b3ef60405160405180910390a4610f7b8383836001611302565b505050565b60006002600083815260200190815260200160002060009054906101000a900473ffffffffffffffffffffffffffffffffffffffff169050919050565b8173ffffffffffffffffffffffffffffffffffffffff168373ffffffffffffffffffffffffffffffffffffffff16141561102c576040517f08c379a0000000000000000000000000000000000000000000000000000000008152600401611023906122c4565b60405180910390fd5b80600560008573ffffffffffffffffffffffffffffffffffffffff1673ffffffffffffffffffffffffffffffffffffffff16815260200190815260200160002060008473ffffffffffffffffffffffffffffffffffffffff1673ffffffffffffffffffffffffffffffffffffffff16815260200190815260200160002060006101000a81548160ff0219169083151502179055508173ffffffffffffffffffffffffffffffffffffffff168373ffffffffffffffffffffffffffffffffffffffff167f17307eab39ab6107e8899845ad3d59bd9653f200f220920489ca2b5937696c318360405161111d91906121e7565b60405180910390a3505050565b611135848484610c86565b61114184848484611308565b611180576040517f08c379a000000000000000000000000000000000000000000000000000000000815260040161117790612244565b60405180910390fd5b50505050565b606060405180602001604052806000815250905090565b60606111a882610ae5565b60006111b2611186565b905060008151116111d257604051806020016040528060008152506111fd565b806111dc8461149f565b6040516020016111ed92919061215c565b6040516020818303038152906040525b915050919050565b6001816000016000828254019250508190555050565b600081600001549050919050565b6112438282604051806020016040528060008152506115c3565b5050565b611250826112bb565b61128f576040517f08c379a000000000000000000000000000000000000000000000000000000000815260040161128690612304565b60405180910390fd5b806006600084815260200190815260200160002090805190602001906112b6929190611a96565b505050565b60008073ffffffffffffffffffffffffffffffffffffffff166112dd83610f80565b73ffffffffffffffffffffffffffffffffffffffff1614159050919050565b50505050565b50505050565b60006113298473ffffffffffffffffffffffffffffffffffffffff1661161e565b15611492578373ffffffffffffffffffffffffffffffffffffffff1663150b7a02611352610b30565b8786866040518563ffffffff1660e01b8152600401611374949392919061219b565b602060405180830381600087803b15801561138e57600080fd5b505af19250505080156113bf57506040513d601f19601f820116820180604052508101906113bc9190611e96565b60015b611442573d80600081146113ef576040519150601f19603f3d011682016040523d82523d6000602084013e6113f4565b606091505b5060008151141561143a576040517f08c379a000000000000000000000000000000000000000000000000000000000815260040161143190612244565b60405180910390fd5b805181602001fd5b63150b7a0260e01b7bffffffffffffffffffffffffffffffffffffffffffffffffffffffff1916817bffffffffffffffffffffffffffffffffffffffffffffffffffffffff191614915050611497565b600190505b949350505050565b6060600060016114ae84611641565b01905060008167ffffffffffffffff8111156114f3577f4e487b7100000000000000000000000000000000000000000000000000000000600052604160045260246000fd5b6040519080825280601f01601f1916602001820160405280156115255781602001600182028036833780820191505090505b509050600082602001820190505b6001156115b8578080600190039150507f3031323334353637383961626364656600000000000000000000000000000000600a86061a8153600a85816115a2577f4e487b7100000000000000000000000000000000000000000000000000000000600052601260045260246000fd5b04945060008514156115b3576115b8565b611533565b819350505050919050565b6115cd8383611878565b6115da6000848484611308565b611619576040517f08c379a000000000000000000000000000000000000000000000000000000000815260040161161090612244565b60405180910390fd5b505050565b6000808273ffffffffffffffffffffffffffffffffffffffff163b119050919050565b600080600090507a184f03e93ff9f4daa797ed6e38ed64bf6a1f01000000000000000083106116c5577a184f03e93ff9f4daa797ed6e38ed64bf6a1f01000000000000000083816116bb577f4e487b7100000000000000000000000000000000000000000000000000000000600052601260045260246000fd5b0492506040810190505b6d04ee2d6d415b85acef81000000008310611728576d04ee2d6d415b85acef8100000000838161171e577f4e487b7100000000000000000000000000000000000000000000000000000000600052601260045260246000fd5b0492506020810190505b662386f26fc10000831061177d57662386f26fc100008381611773577f4e487b7100000000000000000000000000000000000000000000000000000000600052601260045260246000fd5b0492506010810190505b6305f5e10083106117cc576305f5e10083816117c2577f4e487b7100000000000000000000000000000000000000000000000000000000600052601260045260246000fd5b0492506008810190505b612710831061181757612710838161180d577f4e487b7100000000000000000000000000000000000000000000000000000000600052601260045260246000fd5b0492506004810190505b606483106118605760648381611856577f4e487b7100000000000000000000000000000000000000000000000000000000600052601260045260246000fd5b0492506002810190505b600a831061186f576001810190505b80915050919050565b600073ffffffffffffffffffffffffffffffffffffffff168273ffffffffffffffffffffffffffffffffffffffff1614156118e8576040517f08c379a00000000000000000000000000000000000000000000000000000000081526004016118df90612324565b60405180910390fd5b6118f1816112bb565b15611931576040517f08c379a000000000000000000000000000000000000000000000000000000000815260040161192890612284565b60405180910390fd5b61193f6000838360016112fc565b611948816112bb565b15611988576040517f08c379a000000000000000000000000000000000000000000000000000000000815260040161197f90612284565b60405180910390fd5b6001600360008473ffffffffffffffffffffffffffffffffffffffff1673ffffffffffffffffffffffffffffffffffffffff16815260200190815260200160002060008282540192505081905550816002600083815260200190815260200160002060006101000a81548173ffffffffffffffffffffffffffffffffffffffff021916908373ffffffffffffffffffffffffffffffffffffffff160217905550808273ffffffffffffffffffffffffffffffffffffffff16600073ffffffffffffffffffffffffffffffffffffffff167fddf252ad1be2c89b69c2b068fc378daa952ba7f163c4a11628f55a4df523b3ef60405160405180910390a4611a92600083836001611302565b5050565b828054611aa29061253f565b90600052602060002090601f016020900481019282611ac45760008555611b0b565b82601f10611add57805160ff1916838001178555611b0b565b82800160010185558215611b0b579182015b82811115611b0a578251825591602001919060010190611aef565b5b509050611b189190611b1c565b5090565b5b80821115611b35576000816000905550600101611b1d565b5090565b6000611b4c611b47846123e4565b6123bf565b905082815260208101848484011115611b6457600080fd5b611b6f8482856124fd565b509392505050565b6000611b8a611b8584612415565b6123bf565b905082815260208101848484011115611ba257600080fd5b611bad8482856124fd565b509392505050565b600081359050611bc48161292d565b92915050565b600081359050611bd981612944565b92915050565b600081359050611bee8161295b565b92915050565b600081519050611c038161295b565b92915050565b600082601f830112611c1a57600080fd5b8135611c2a848260208601611b39565b91505092915050565b600082601f830112611c4457600080fd5b8135611c54848260208601611b77565b91505092915050565b600081359050611c6c81612972565b92915050565b600060208284031215611c8457600080fd5b6000611c9284828501611bb5565b91505092915050565b60008060408385031215611cae57600080fd5b6000611cbc85828601611bb5565b9250506020611ccd85828601611bb5565b9150509250929050565b600080600060608486031215611cec57600080fd5b6000611cfa86828701611bb5565b9350506020611d0b86828701611bb5565b9250506040611d1c86828701611c5d565b9150509250925092565b60008060008060808587031215611d3c57600080fd5b6000611d4a87828801611bb5565b9450506020611d5b87828801611bb5565b9350506040611d6c87828801611c5d565b925050606085013567ffffffffffffffff811115611d8957600080fd5b611d9587828801611c09565b91505092959194509250565b60008060408385031215611db457600080fd5b6000611dc285828601611bb5565b9250506020611dd385828601611bca565b9150509250929050565b60008060408385031215611df057600080fd5b6000611dfe85828601611bb5565b925050602083013567ffffffffffffffff811115611e1b57600080fd5b611e2785828601611c33565b9150509250929050565b60008060408385031215611e4457600080fd5b6000611e5285828601611bb5565b9250506020611e6385828601611c5d565b9150509250929050565b600060208284031215611e7f57600080fd5b6000611e8d84828501611bdf565b91505092915050565b600060208284031215611ea857600080fd5b6000611eb684828501611bf4565b91505092915050565b600060208284031215611ed157600080fd5b6000611edf84828501611c5d565b91505092915050565b611ef181612489565b82525050565b611f008161249b565b82525050565b6000611f1182612446565b611f1b818561245c565b9350611f2b81856020860161250c565b611f3481612600565b840191505092915050565b6000611f4a82612451565b611f54818561246d565b9350611f6481856020860161250c565b611f6d81612600565b840191505092915050565b6000611f8382612451565b611f8d818561247e565b9350611f9d81856020860161250c565b80840191505092915050565b6000611fb6602d8361246d565b9150611fc182612611565b604082019050919050565b6000611fd960328361246d565b9150611fe482612660565b604082019050919050565b6000611ffc60258361246d565b9150612007826126af565b604082019050919050565b600061201f601c8361246d565b915061202a826126fe565b602082019050919050565b600061204260248361246d565b915061204d82612727565b604082019050919050565b600061206560198361246d565b915061207082612776565b602082019050919050565b600061208860298361246d565b91506120938261279f565b604082019050919050565b60006120ab602e8361246d565b91506120b6826127ee565b604082019050919050565b60006120ce60208361246d565b91506120d98261283d565b602082019050919050565b60006120f160188361246d565b91506120fc82612866565b602082019050919050565b600061211460218361246d565b915061211f8261288f565b604082019050919050565b6000612137603d8361246d565b9150612142826128de565b604082019050919050565b612156816124f3565b82525050565b60006121688285611f78565b91506121748284611f78565b91508190509392505050565b60006020820190506121956000830184611ee8565b92915050565b60006080820190506121b06000830187611ee8565b6121bd6020830186611ee8565b6121ca604083018561214d565b81810360608301526121dc8184611f06565b905095945050505050565b60006020820190506121fc6000830184611ef7565b92915050565b6000602082019050818103600083015261221c8184611f3f565b905092915050565b6000602082019050818103600083015261223d81611fa9565b9050919050565b6000602082019050818103600083015261225d81611fcc565b9050919050565b6000602082019050818103600083015261227d81611fef565b9050919050565b6000602082019050818103600083015261229d81612012565b9050919050565b600060208201905081810360008301526122bd81612035565b9050919050565b600060208201905081810360008301526122dd81612058565b9050919050565b600060208201905081810360008301526122fd8161207b565b9050919050565b6000602082019050818103600083015261231d8161209e565b9050919050565b6000602082019050818103600083015261233d816120c1565b9050919050565b6000602082019050818103600083015261235d816120e4565b9050919050565b6000602082019050818103600083015261237d81612107565b9050919050565b6000602082019050818103600083015261239d8161212a565b9050919050565b60006020820190506123b9600083018461214d565b92915050565b60006123c96123da565b90506123d58282612571565b919050565b6000604051905090565b600067ffffffffffffffff8211156123ff576123fe6125d1565b5b61240882612600565b9050602081019050919050565b600067ffffffffffffffff8211156124305761242f6125d1565b5b61243982612600565b9050602081019050919050565b600081519050919050565b600081519050919050565b600082825260208201905092915050565b600082825260208201905092915050565b600081905092915050565b6000612494826124d3565b9050919050565b60008115159050919050565b60007fffffffff0000000000000000000000000000000000000000000000000000000082169050919050565b600073ffffffffffffffffffffffffffffffffffffffff82169050919050565b6000819050919050565b82818337600083830152505050565b60005b8381101561252a57808201518184015260208101905061250f565b83811115612539576000848401525b50505050565b6000600282049050600182168061255757607f821691505b6020821081141561256b5761256a6125a2565b5b50919050565b61257a82612600565b810181811067ffffffffffffffff82111715612599576125986125d1565b5b80604052505050565b7f4e487b7100000000000000000000000000000000000000000000000000000000600052602260045260246000fd5b7f4e487b7100000000000000000000000000000000000000000000000000000000600052604160045260246000fd5b6000601f19601f8301169050919050565b7f4552433732313a2063616c6c6572206973206e6f7420746f6b656e206f776e6560008201527f72206f7220617070726f76656400000000000000000000000000000000000000602082015250565b7f4552433732313a207472616e7366657220746f206e6f6e20455243373231526560008201527f63656976657220696d706c656d656e7465720000000000000000000000000000602082015250565b7f4552433732313a207472616e736665722066726f6d20696e636f72726563742060008201527f6f776e6572000000000000000000000000000000000000000000000000000000602082015250565b7f4552433732313a20746f6b656e20616c7265616479206d696e74656400000000600082015250565b7f4552433732313a207472616e7366657220746f20746865207a65726f2061646460008201527f7265737300000000000000000000000000000000000000000000000000000000602082015250565b7f4552433732313a20617070726f766520746f2063616c6c657200000000000000600082015250565b7f4552433732313a2061646472657373207a65726f206973206e6f74206120766160008201527f6c6964206f776e65720000000000000000000000000000000000000000000000602082015250565b7f45524337323155524953746f726167653a2055524920736574206f66206e6f6e60008201527f6578697374656e7420746f6b656e000000000000000000000000000000000000602082015250565b7f4552433732313a206d696e7420746f20746865207a65726f2061646472657373600082015250565b7f4552433732313a20696e76616c696420746f6b656e2049440000000000000000600082015250565b7f4552433732313a20617070726f76616c20746f2063757272656e74206f776e6560008201527f7200000000000000000000000000000000000000000000000000000000000000602082015250565b7f4552433732313a20617070726f76652063616c6c6572206973206e6f7420746f60008201527f6b656e206f776e6572206f7220617070726f76656420666f7220616c6c000000602082015250565b61293681612489565b811461294157600080fd5b50565b61294d8161249b565b811461295857600080fd5b50565b612964816124a7565b811461296f57600080fd5b50565b61297b816124f3565b811461298657600080fd5b5056fea26469706673582212209507d281fe4af4918aabea923a05655e6a055a0a406437de6b2155690e51ddf964736f6c63430008010033",
  "linkReferences": {},
  "deployedLinkReferences": {}
}