{
  "_format": "hh-sol-artifact-1",
  "contractName": "StorageFactory",
  "sourceName": "contracts/StorageFactory.sol",
  "abi": [
    {
      "inputs": [],
      "name": "createSimpleStorageContract",
      "outputs": [],
      "stateMutability": "nonpayable",
      "type": "function"
    },
    {
      "inputs": [
        {
          "internalType": "uint256",
          "name": "index",
          "type": "uint256"
        }
      ],
      "name": "retrieveFavNum",
      "outputs": [
        {
          "internalType": "uint256",
          "name": "",
          "type": "uint256"
        }
      ],
      "stateMutability": "view",
      "type": "function"
    },
    {
      "inputs": [
        {
          "internalType": "uint256",
          "name": "",
          "type": "uint256"
        }
      ],
      "name": "simpleStorageArray",
      "outputs": [
        {
          "internalType": "contract SimpleStorage",
          "name": "",
          "type": "address"
        }
      ],
      "stateMutability": "view",
      "type": "function"
    },
    {
      "inputs": [
        {
          "internalType": "uint256",
          "name": "index",
          "type": "uint256"
        },
        {
          "internalType": "uint256",
          "name": "favNum",
          "type": "uint256"
        }
      ],
      "name": "storeToFavNum",
      "outputs": [],
      "stateMutability": "nonpayable",
      "type": "function"
    }
  ],
  "bytecode": "0x608060405234801561001057600080fd5b50610e86806100206000396000f3fe608060405234801561001057600080fd5b506004361061004c5760003560e01c80631dda65411461005157806364591bf11461005b578063c8b3eb2a1461008b578063f86ec092146100bb575b600080fd5b6100596100d7565b005b61007560048036038101906100709190610353565b61016a565b60405161008291906103ff565b60405180910390f35b6100a560048036038101906100a09190610353565b6101a9565b6040516100b29190610429565b60405180910390f35b6100d560048036038101906100d09190610444565b61025e565b005b60006040516100e59061030b565b604051809103906000f080158015610101573d6000803e3d6000fd5b5090506000819080600181540180825580915050600190039060005260206000200160009091909190916101000a81548173ffffffffffffffffffffffffffffffffffffffff021916908373ffffffffffffffffffffffffffffffffffffffff16021790555050565b6000818154811061017a57600080fd5b906000526020600020016000915054906101000a900473ffffffffffffffffffffffffffffffffffffffff1681565b60008082815481106101be576101bd610484565b5b9060005260206000200160009054906101000a900473ffffffffffffffffffffffffffffffffffffffff1673ffffffffffffffffffffffffffffffffffffffff16632e64cec16040518163ffffffff1660e01b8152600401602060405180830381865afa158015610233573d6000803e3d6000fd5b505050506040513d601f19601f8201168201806040525081019061025791906104c8565b9050919050565b6000828154811061027257610271610484565b5b9060005260206000200160009054906101000a900473ffffffffffffffffffffffffffffffffffffffff1673ffffffffffffffffffffffffffffffffffffffff16636057361d826040518263ffffffff1660e01b81526004016102d59190610429565b600060405180830381600087803b1580156102ef57600080fd5b505af1158015610303573d6000803e3d6000fd5b505050505050565b61095b806104f683390190565b600080fd5b6000819050919050565b6103308161031d565b811461033b57600080fd5b50565b60008135905061034d81610327565b92915050565b60006020828403121561036957610368610318565b5b60006103778482850161033e565b91505092915050565b600073ffffffffffffffffffffffffffffffffffffffff82169050919050565b6000819050919050565b60006103c56103c06103bb84610380565b6103a0565b610380565b9050919050565b60006103d7826103aa565b9050919050565b60006103e9826103cc565b9050919050565b6103f9816103de565b82525050565b600060208201905061041460008301846103f0565b92915050565b6104238161031d565b82525050565b600060208201905061043e600083018461041a565b92915050565b6000806040838503121561045b5761045a610318565b5b60006104698582860161033e565b925050602061047a8582860161033e565b9150509250929050565b7f4e487b7100000000000000000000000000000000000000000000000000000000600052603260045260246000fd5b6000815190506104c281610327565b92915050565b6000602082840312156104de576104dd610318565b5b60006104ec848285016104b3565b9150509291505056fe608060405234801561001057600080fd5b5061093b806100206000396000f3fe608060405234801561001057600080fd5b50600436106100575760003560e01c806306c62c2c1461005c5780632e64cec11461008c5780636057361d146100aa5780636f760f41146100c65780639e7a13ad146100e2575b600080fd5b610076600480360381019061007191906103f3565b610113565b6040516100839190610455565b60405180910390f35b610094610141565b6040516100a19190610455565b60405180910390f35b6100c460048036038101906100bf919061049c565b61014a565b005b6100e060048036038101906100db91906104c9565b610154565b005b6100fc60048036038101906100f7919061049c565b6101dd565b60405161010a9291906105a4565b60405180910390f35b6002818051602081018201805184825260208301602085012081835280955050505050506000915090505481565b60008054905090565b8060008190555050565b600160405180604001604052808381526020018481525090806001815401808255809150506001900390600052602060002090600202016000909190919091506000820151816000015560208201518160010190816101b391906107e0565b505050806002836040516101c791906108ee565b9081526020016040518091039020819055505050565b600181815481106101ed57600080fd5b906000526020600020906002020160009150905080600001549080600101805461021690610603565b80601f016020809104026020016040519081016040528092919081815260200182805461024290610603565b801561028f5780601f106102645761010080835404028352916020019161028f565b820191906000526020600020905b81548152906001019060200180831161027257829003601f168201915b5050505050905082565b6000604051905090565b600080fd5b600080fd5b600080fd5b600080fd5b6000601f19601f8301169050919050565b7f4e487b7100000000000000000000000000000000000000000000000000000000600052604160045260246000fd5b610300826102b7565b810181811067ffffffffffffffff8211171561031f5761031e6102c8565b5b80604052505050565b6000610332610299565b905061033e82826102f7565b919050565b600067ffffffffffffffff82111561035e5761035d6102c8565b5b610367826102b7565b9050602081019050919050565b82818337600083830152505050565b600061039661039184610343565b610328565b9050828152602081018484840111156103b2576103b16102b2565b5b6103bd848285610374565b509392505050565b600082601f8301126103da576103d96102ad565b5b81356103ea848260208601610383565b91505092915050565b600060208284031215610409576104086102a3565b5b600082013567ffffffffffffffff811115610427576104266102a8565b5b610433848285016103c5565b91505092915050565b6000819050919050565b61044f8161043c565b82525050565b600060208201905061046a6000830184610446565b92915050565b6104798161043c565b811461048457600080fd5b50565b60008135905061049681610470565b92915050565b6000602082840312156104b2576104b16102a3565b5b60006104c084828501610487565b91505092915050565b600080604083850312156104e0576104df6102a3565b5b600083013567ffffffffffffffff8111156104fe576104fd6102a8565b5b61050a858286016103c5565b925050602061051b85828601610487565b9150509250929050565b600081519050919050565b600082825260208201905092915050565b60005b8381101561055f578082015181840152602081019050610544565b60008484015250505050565b600061057682610525565b6105808185610530565b9350610590818560208601610541565b610599816102b7565b840191505092915050565b60006040820190506105b96000830185610446565b81810360208301526105cb818461056b565b90509392505050565b7f4e487b7100000000000000000000000000000000000000000000000000000000600052602260045260246000fd5b6000600282049050600182168061061b57607f821691505b60208210810361062e5761062d6105d4565b5b50919050565b60008190508160005260206000209050919050565b60006020601f8301049050919050565b600082821b905092915050565b6000600883026106967fffffffffffffffffffffffffffffffffffffffffffffffffffffffffffffffff82610659565b6106a08683610659565b95508019841693508086168417925050509392505050565b6000819050919050565b60006106dd6106d86106d38461043c565b6106b8565b61043c565b9050919050565b6000819050919050565b6106f7836106c2565b61070b610703826106e4565b848454610666565b825550505050565b600090565b610720610713565b61072b8184846106ee565b505050565b5b8181101561074f57610744600082610718565b600181019050610731565b5050565b601f8211156107945761076581610634565b61076e84610649565b8101602085101561077d578190505b61079161078985610649565b830182610730565b50505b505050565b600082821c905092915050565b60006107b760001984600802610799565b1980831691505092915050565b60006107d083836107a6565b9150826002028217905092915050565b6107e982610525565b67ffffffffffffffff811115610802576108016102c8565b5b61080c8254610603565b610817828285610753565b600060209050601f83116001811461084a5760008415610838578287015190505b61084285826107c4565b8655506108aa565b601f19841661085886610634565b60005b828110156108805784890151825560018201915060208501945060208101905061085b565b8683101561089d5784890151610899601f8916826107a6565b8355505b6001600288020188555050505b505050505050565b600081905092915050565b60006108c882610525565b6108d281856108b2565b93506108e2818560208601610541565b80840191505092915050565b60006108fa82846108bd565b91508190509291505056fea26469706673582212200135ed9d6c5f6f9b3ace4030c35ae643c0972d7a2f4df25913e4026d0e4ca79764736f6c63430008120033a2646970667358221220439deb21b790c095f0955931c7dc519a4be58015dc4eacd1a41942a24737912864736f6c63430008120033",
  "linkReferences": {},
  "deployedLinkReferences": {}
}